{
    "contractName": "freeZoneStorage",
    "abi": [
        {
            "anonymous": false,
            "inputs": [
                {
                    "indexed": false,
                    "internalType": "address",
                    "name": "sender",
                    "type": "address"
                },
                {
                    "indexed": false,
                    "internalType": "uint256",
                    "name": "amount",
                    "type": "uint256"
                }
            ],
            "name": "FreeZone",
            "type": "event"
        },
        {
            "anonymous": false,
            "inputs": [
                {
                    "indexed": false,
                    "internalType": "address",
                    "name": "sender",
                    "type": "address"
                },
                {
                    "indexed": false,
                    "internalType": "address",
                    "name": "receiver",
                    "type": "address"
                },
                {
                    "indexed": false,
                    "internalType": "uint256",
                    "name": "amount",
                    "type": "uint256"
                }
            ],
            "name": "Transfer",
            "type": "event"
        },
        {
            "anonymous": false,
            "inputs": [
                {
                    "indexed": false,
                    "internalType": "address",
                    "name": "receiver",
                    "type": "address"
                },
                {
                    "indexed": false,
                    "internalType": "uint256",
                    "name": "amount",
                    "type": "uint256"
                }
            ],
            "name": "Withdrawal",
            "type": "event"
        },
        {
            "inputs": [
                {
                    "internalType": "address",
                    "name": "",
                    "type": "address"
                }
            ],
            "name": "balances",
            "outputs": [
                {
                    "internalType": "uint256",
                    "name": "",
                    "type": "uint256"
                }
            ],
            "stateMutability": "view",
            "type": "function",
            "constant": true
        },
        {
            "inputs": [],
            "name": "deposit",
            "outputs": [],
            "stateMutability": "payable",
            "type": "function",
            "payable": true
        },
        {
            "inputs": [
                {
                    "internalType": "uint256",
                    "name": "amount",
                    "type": "uint256"
                }
            ],
            "name": "withdraw",
            "outputs": [],
            "stateMutability": "nonpayable",
            "type": "function"
        },
        {
            "inputs": [
                {
                    "internalType": "address",
                    "name": "receiver",
                    "type": "address"
                },
                {
                    "internalType": "uint256",
                    "name": "amount",
                    "type": "uint256"
                }
            ],
            "name": "transfer",
            "outputs": [],
            "stateMutability": "nonpayable",
            "type": "function"
        }
    ],
    "bytecode": "0x608060405234801561001057600080fd5b506109eb806100206000396000f3fe60806040526004361061003f5760003560e01c806327e235e3146100445780632e1a7d4d14610081578063a9059cbb146100aa578063d0e30db0146100d3575b600080fd5b34801561005057600080fd5b5061006b60048036038101906100669190610664565b6100dd565b604051610078919061089a565b60405180910390f35b34801561008d57600080fd5b506100a860048036038101906100a391906106c9565b6100f5565b005b3480156100b657600080fd5b506100d160048036038101906100cc919061068d565b61028c565b005b6100db610472565b005b60006020528060005260406000206000915090505481565b806000803373ffffffffffffffffffffffffffffffffffffffff1673ffffffffffffffffffffffffffffffffffffffff168152602001908152602001600020541015610176576040517f08c379a000000000000000000000000000000000000000000000000000000000815260040161016d9061087a565b60405180910390fd5b6101c7816000803373ffffffffffffffffffffffffffffffffffffffff1673ffffffffffffffffffffffffffffffffffffffff1681526020019081526020016000205461054090919063ffffffff16565b6000803373ffffffffffffffffffffffffffffffffffffffff1673ffffffffffffffffffffffffffffffffffffffff168152602001908152602001600020819055507f7fcf532c15f0a6db0bd6d0e038bea71d30d808c7d98cb3bf7268a95bf5081b65338260405161023a92919061080f565b60405180910390a13373ffffffffffffffffffffffffffffffffffffffff166108fc829081150290604051600060405180830381858888f19350505050158015610288573d6000803e3d6000fd5b5050565b806000803373ffffffffffffffffffffffffffffffffffffffff1673ffffffffffffffffffffffffffffffffffffffff16815260200190815260200160002054101561030d576040517f08c379a00000000000000000000000000000000000000000000000000000000081526004016103049061087a565b60405180910390fd5b61035e816000803373ffffffffffffffffffffffffffffffffffffffff1673ffffffffffffffffffffffffffffffffffffffff1681526020019081526020016000205461054090919063ffffffff16565b6000803373ffffffffffffffffffffffffffffffffffffffff1673ffffffffffffffffffffffffffffffffffffffff168152602001908152602001600020819055506103f1816000808573ffffffffffffffffffffffffffffffffffffffff1673ffffffffffffffffffffffffffffffffffffffff1681526020019081526020016000205461058a90919063ffffffff16565b6000808473ffffffffffffffffffffffffffffffffffffffff1673ffffffffffffffffffffffffffffffffffffffff168152602001908152602001600020819055507fddf252ad1be2c89b69c2b068fc378daa952ba7f163c4a11628f55a4df523b3ef338383604051610466939291906107d8565b60405180910390a15050565b7fe1fffcc4923d04b559f4d29a8bfc6cda04eb5b0d3c460751c2402c5c5cc9109c33346040516104a392919061080f565b60405180910390a16104fc346000803373ffffffffffffffffffffffffffffffffffffffff1673ffffffffffffffffffffffffffffffffffffffff1681526020019081526020016000205461058a90919063ffffffff16565b6000803373ffffffffffffffffffffffffffffffffffffffff1673ffffffffffffffffffffffffffffffffffffffff16815260200190815260200160002081905550565b600061058283836040518060400160405280601e81526020017f536166654d6174683a207375627472616374696f6e206f766572666c6f7700008152506105df565b905092915050565b6000808284019050838110156105d5576040517f08c379a00000000000000000000000000000000000000000000000000000000081526004016105cc9061085a565b60405180910390fd5b8091505092915050565b6000838311158290610627576040517f08c379a000000000000000000000000000000000000000000000000000000000815260040161061e9190610838565b60405180910390fd5b5060008385039050809150509392505050565b60008135905061064981610987565b92915050565b60008135905061065e8161099e565b92915050565b60006020828403121561067657600080fd5b60006106848482850161063a565b91505092915050565b600080604083850312156106a057600080fd5b60006106ae8582860161063a565b92505060206106bf8582860161064f565b9150509250929050565b6000602082840312156106db57600080fd5b60006106e98482850161064f565b91505092915050565b6106fb8161090d565b82525050565b61070a816108d1565b82525050565b600061071b826108b5565b61072581856108c0565b9350610735818560208601610943565b61073e81610976565b840191505092915050565b6000610756601b836108c0565b91507f536166654d6174683a206164646974696f6e206f766572666c6f7700000000006000830152602082019050919050565b60006107966012836108c0565b91507f496e73756666696369656e742066756e647300000000000000000000000000006000830152602082019050919050565b6107d281610903565b82525050565b60006060820190506107ed60008301866106f2565b6107fa6020830185610701565b61080760408301846107c9565b949350505050565b600060408201905061082460008301856106f2565b61083160208301846107c9565b9392505050565b600060208201905081810360008301526108528184610710565b905092915050565b6000602082019050818103600083015261087381610749565b9050919050565b6000602082019050818103600083015261089381610789565b9050919050565b60006020820190506108af60008301846107c9565b92915050565b600081519050919050565b600082825260208201905092915050565b60006108dc826108e3565b9050919050565b600073ffffffffffffffffffffffffffffffffffffffff82169050919050565b6000819050919050565b60006109188261091f565b9050919050565b600061092a82610931565b9050919050565b600061093c826108e3565b9050919050565b60005b83811015610961578082015181840152602081019050610946565b83811115610970576000848401525b50505050565b6000601f19601f8301169050919050565b610990816108d1565b811461099b57600080fd5b50565b6109a781610903565b81146109b257600080fd5b5056fea26469706673582212200a39b9e28f7be46aff7d7880ee1d29bcd6ff4aa97b9bc56ad9608ed51a1c6aaa64736f6c634300060c0033",
    "immutableReferences": {},
    "source": "// SPDX-License-Identifier: MIT\npragma solidity ^0.6.0;\npragma experimental ABIEncoderV2; // contract address :\"0x22bF4B689F63ED71F701Ce59713D87fE0fd795b7\"\n\nimport \"@openzeppelin/contracts/math/SafeMath.sol\";\n\n/// @title Dapp de crowdfunding en Ether pour definir la structure et les fonctions de ce Smart Contract\n/// @author Henri-Michel LEOCADIE\n/// @notice Vous ne pouvez utliser ce contrat que pour faire des dépots et retour éventuel du ou des dépôts la plus basique\n/// @dev Tous les appels de fonction sont implémentés sans effects secondaires\n\n\ncontract DepositCrowdfunding {\n    \n    using SafeMath for uint256;\n    \n mapping(address => uint256) public balances;\n\n    event Deposit(address sender, uint256 amount);\n    event Withdrawal(address receiver, uint256 amount);\n    event Transfer(address sender, address receiver, uint256 amount);\n\n function deposit() public payable {\n        emit Deposit(msg.sender, msg.value);\n        balances[msg.sender] = balances[msg.sender].add(msg.value);\n    }\n\n    function withdraw(uint256 amount) public { \n        require(balances[msg.sender] >= amount, \"Insufficient funds\");\n        balances[msg.sender] = balances[msg.sender].sub(amount);\n        emit Withdrawal(msg.sender, amount);\n        msg.sender.transfer(amount);\n    }\n\n    function transfer(address receiver, uint256 amount) public { // SafeMath \n        require(balances[msg.sender] >= amount, \"Insufficient funds\");\n        balances[msg.sender] = balances[msg.sender].sub(amount);\n        balances[receiver] = balances[receiver].add(amount);\n        emit Transfer(msg.sender, receiver, amount);\n    }\n\n        // Développement futur \n    /*function transfer(address[] memory receivers, uint amount) public {\n        require(balances[msg.sender] >= receivers.length * amount, \"Insufficient funds\");\n        for (uint i=0; i<receivers.length; i++) {\n            balances[msg.sender] -= amount; //laisser SafeMath faire son travaille \n            balances[receivers[i]] += amount; //laisser SafeMath faire son travaille\n             emit Transfer(msg.sender, receivers[i], amount);*\n        }\n    }*/\n}\n",
    "sourcePath": "/home/cox/Bureau/projets/dapp-crowdfunding-back/contracts/DepositCrowdfunding.sol",
    "compiler": {
        "name": "solc",
        "version": "0.6.12+commit.27d51765.Linux.g++"
    },
    "schemaVersion": "3.3.2",
    "updatedAt": "2022-02-20T15:02:20.794Z",
    "networkType": "ethereum",
    "devdoc": {
        "author": "Henri-Michel LEOCADIE",
        "details": "Tous les appels de fonction sont implémentés sans effects secondaires",
        "kind": "dev",
        "methods": {},
        "title": "Dapp de crowdfunding en Ether pour definir la structure et les fonctions de ce Smart Contract",
        "version": 1
    },
    "userdoc": {
        "kind": "user",
        "methods": {},
        "notice": "Vous ne pouvez utliser ce contrat que pour faire des dépots et retour éventuel du ou des dépôts la plus basique",
        "version": 1
    }
}